:020000040800F2
:10000000B006002089010008910100089301000852
:100010009501000897010008990100080000000000
:100020000000000000000000000000009B0100082C
:100030009D010008000000009F01000875050008F0
:10004000A3010008A3010008A3010008A301000800
:10005000A3010008A3010008A3010008A3010008F0
:10006000A3010008A3010008A3010008A3010008E0
:10007000A3010008A3010008A3010008A3010008D0
:10008000A3010008A3010008A3010008A3010008C0
:10009000A3010008A3010008A3010008A3010008B0
:1000A000A3010008A3010008A3010008A3010008A0
:1000B000A3010008A3010008A3010008A301000890
:1000C000A3010008A3010008A3010008A301000880
:1000D000A3010008A3010008A3010008A301000870
:1000E000A3010008A3010008A301000800F002F822
:1000F00000F03AF80AA090E8000C82448344AAF188
:100100000107DA4501D100F02FF8AFF2090EBAE885
:100110000F0013F0010F18BFFB1A43F0010318473B
:1001200084060000A4060000103A24BF78C878C1F5
:10013000FAD8520724BF30C830C144BF04680C60ED
:10014000704700000023002400250026103A28BF35
:1001500078C1FBD8520728BF30C148BF0B60704739
:100160001FB51FBD10B510BD00F031F81146FFF7E7
:10017000F7FF00F0B3FA00F04FF803B4FFF7F2FF17
:1001800003BC00F057F800000948804709480047C1
:10019000FEE7FEE7FEE7FEE7FEE7FEE7FEE7FEE737
:1001A000FEE7FEE704480549054A064B7047000094
:1001B000ED050008ED000008B0000020B0060020AA
:1001C000B0020020B00200207047704770477546AB
:1001D00000F02CF8AE4605006946534620F00700B3
:1001E000854618B020B5FFF7DDFFBDE820404FF091
:1001F00000064FF000074FF000084FF0000BAC4630
:10020000ACE8C009ACE8C009ACE8C009ACE8C0097A
:1002100021F007018D46704710B50446AFF300800A
:100220002046BDE81040FFF7A8BF00000048704717
:100230003000002001491820ABBEFEE72600020076
:100240007047000080B500F0A5F9E648094900684C
:10025000B0FBF1F0411E0020B0EB116F18BF80BD64
:10026000054AF023516005490B709060072010602B
:1002700080BD00BF40420F0010E000E023ED00E031
:10028000C349086008680028FCD170472DE9F04395
:1002900091F803E00EF00F0C1EF0100F1CBF8A78CF
:1002A0004CEA020C098811F0FF0F21D003680022EC
:1002B0004FF001094FF00F08002616E009FA06F783
:1002C0000F4210D008FA02F40CFA02F5BEF1480F02
:1002D00023EA040343EA050304D0BEF1280F08BF54
:1002E000476100E0076104320136082EE6D1036061
:1002F000B1F5807F38BFBDE8F083436800224FF43A
:1003000080794FF00F08002618E009FA06F707EA8F
:100310000105BD4210D108FA02F40CFA02F5BEF153
:10032000480F23EA040343EA050304D0BEF1280F73
:1003300008BF476100E0076104320136082EE4D1AE
:100340004360BDE8F0834161704701617047000080
:100350008F498868C9687047E0B51020012100F016
:100360003FF8034801A901901648FFF78FFF8CBDA5
:100370000020031470B5FFF7EBFF104E04460D4646
:100380000F4AD6E90201801841F10001201A75EBED
:10039000010038BF70BD31780A4831B10021317099
:1003A0004FF40051FFF7CFFF05E0012131704FF40A
:1003B0000051FFF7CAFFC6E9024570BDA00000204A
:1003C00020A1070000100140044A002911680CBF59
:1003D00021EA000008431060704700BF1C10024073
:1003E000044A002911680CBF21EA0000084310608C
:1003F000704700BF181002400288002942F04003F5
:1004000008BF22F04003038070470089084018BFEE
:1004100001207047808970478181704702880B886E
:1004200002F441521A434B881A438B881A43CB88F3
:100430001A430B891A434B891A438B891A43CB8978
:100440001A430280828B22F400628283098A01822D
:1004500070470000F0B587B019481A4C01AD1A4F2B
:10046000294601902046B847042029468DF8070008
:100470004020ADF804002046B84710262046294603
:100480008DF80760ADF80460B8474FF4803004F58C
:10049000205502A9CDF80E000020ADF816002F4817
:1004A000CDF812004FF48270CDF80A002846FFF70D
:1004B000B5FF28460121FFF79FFF266107B0F0BD79
:1004C000A0000318000801408D02000810B50A4C76
:1004D00004200121A04708200121A047012001217B
:1004E000A0474FF480500121A0474FF480400121E4
:1004F000BDE81040FFF768BFE103000870B586B0A3
:10050000A04C15486E46314604F5544500902846E7
:10051000FFF7BCFE182031468DF803004FF48040F1
:10052000ADF800002846FFF7B1FE4FF480300B49CC
:10053000CDF80A000020ADF81200CDF80E10CDF86D
:10054000060001A92046FFF769FF20460121FFF7B9
:1005500053FF06B070BD00BF00A0030400023000CE
:1005600080B5FFF7B3FFFFF775FFBDE88040FFF7E9
:10057000C5BF00000648016811B10168013901607A
:100580008168C2680131816042F10001C160704739
:10059000900000201048016801F00C020F49082A61
:1005A0000FD10268C2F383420368023213F4803F22
:1005B00001D10B4904E0036813F4003F18BF084958
:1005C0005143084A084B11600068C0F30310185CDF
:1005D00021FA00F0106070470410024000127A0007
:1005E00000093D00280000209407000882B0374829
:1005F000374A016841F00101016041681140354A04
:100600004160016811400160016821F480210160AE
:10061000416821F4FE0141604FF41F018160002117
:1006200001910091016841F480310160016801F499
:1006300000310091019901310191009919B9019995
:10064000B1F5A06FF2D1016811F4003F0CBF002199
:10065000012100910099012932D14FF48051425873
:1006600042F010024250425822F0030242504258D7
:1006700042F0020242504168416041684160416875
:1006800041F480614160416821F47C11416041681E
:1006900041F4E8114160016841F080710160016836
:1006A00011F0007FFBD0416821F0030141604168F7
:1006B00041F002014160416801F00C010829FAD1C2
:1006C00005484FF00061016002B070470010024021
:1006D0000000FFF8FFFFF6FE08ED00E02DE9F84FFF
:1006E000FFF73AFEFFF7AEFDFFF73AFF254C264E27
:1006F000264DDFF89CA04FF010084FF00009B346DC
:100700000027C6F8048025E028460221FFF77DFE79
:100710000028F9D01AF807102846FFF77DFE0AEBEB
:1007200007062046B17AFFF777FE28460121FFF73A
:100730006CFE0028F9D02846FFF76CFE3075204685
:100740000121FFF762FE0028F9D02046FFF762FE84
:10075000B07701370A2FD7D14FF47A705E46CBF8C5
:100760000080FFF78DFD002006E00AEB000101305C
:1007700081F8149081F81E900A28F6D1FFF7FAFD4F
:10078000BDE700BF003800401008014000300140C4
:10079000000000200000000000000000010203042F
:1007A00006070809D00700080000002030000000FC
:1007B0002801000800080008300000208006000022
:1007C00044010008000000000000000000000000DC
:1007D00007111B252F39434D576109131D27313B45
:1007E000454F5963000000000000000000000000B9
:1007F000000000000000000000A24A040000000009
:04000005080000ED02
:00000001FF
