:020000040800F2
:100000009006002089010008910100089301000872
:100010009501000897010008990100080000000000
:100020000000000000000000000000009B0100082C
:100030009D010008000000009F010008450600081F
:10004000A3010008A3010008A3010008A301000800
:10005000A3010008A3010008A3010008A3010008F0
:10006000A3010008A3010008A3010008A3010008E0
:10007000A3010008A3010008A3010008A3010008D0
:10008000A3010008A3010008A3010008A3010008C0
:10009000A3010008A3010008A3010008A3010008B0
:1000A000A3010008A3010008A3010008A3010008A0
:1000B000A3010008A3010008A3010008A301000890
:1000C000A3010008A3010008A3010008A301000880
:1000D00069040008A3010008A3010008A3010008A7
:1000E000A3010008A3010008A301000800F002F822
:1000F00000F03AF80AA090E8000C82448344AAF188
:100100000107DA4501D100F02FF8AFF2090EBAE885
:100110000F0013F0010F18BFFB1A43F0010318473B
:100120000C0700002C070000103A24BF78C878C1E3
:10013000FAD8520724BF30C830C144BF04680C60ED
:10014000704700000023002400250026103A28BF35
:1001500078C1FBD8520728BF30C148BF0B60704739
:100160001FB51FBD10B510BD00F031F81146FFF7E7
:10017000F7FF00F01BFB00F04FF803B4FFF7F2FFAE
:1001800003BC00F057F800000948804709480047C1
:10019000FEE7FEE7FEE7FEE7FEE7FEE7FEE7FEE737
:1001A000FEE7FEE704480549054A064B7047000094
:1001B000BD060008ED000008900000209006002019
:1001C00090020020900200207047704770477546EB
:1001D00000F02CF8AE4605006946534620F00700B3
:1001E000854618B020B5FFF7DDFFBDE820404FF091
:1001F00000064FF000074FF000084FF0000BAC4630
:10020000ACE8C009ACE8C009ACE8C009ACE8C0097A
:1002100021F007018D46704710B50446AFF300800A
:100220002046BDE81040FFF7A8BF00000048704717
:100230001000002001491820ABBEFEE72600020096
:100240007047000080B500F00DFA0A480A490068BE
:10025000B0FBF1F0411E0020B0EB116F18BF80BD64
:10026000064AF023516006490B7090600720106029
:1002700080BD00BF0800002040420F0010E000E0F9
:1002800023ED00E0F649086008680028FCD17047BB
:100290002DE9F04391F803E00EF00F0C1EF0100F63
:1002A0001CBF8A784CEA020C098811F0FF0F21D09C
:1002B000036800224FF001094FF00F08002616E0F6
:1002C00009FA06F70F4210D008FA02F40CFA02F508
:1002D000BEF1480F23EA040343EA050304D0BEF14C
:1002E000280F08BF476100E0076104320136082E7D
:1002F000E6D10360B1F5807F38BFBDE8F083436885
:1003000000224FF480794FF00F08002618E009FA18
:1003100006F707EA0105BD4210D108FA02F40CFA0B
:1003200002F5BEF1480F23EA040343EA050304D0B3
:10033000BEF1280F08BF476100E0076104320136B3
:10034000082EE4D14360BDE8F0834161704701614C
:1003500070470000C2498868C9687047E0B510203E
:10036000012100F075F8034801A901901648FFF734
:100370008FFF8CBD0020031470B5FFF7EBFF104E0C
:1003800004460D460F4AD6E90201801841F10001EA
:10039000201A75EB010038BF70BD31780A4831B1C1
:1003A000002131704FF40051FFF7CFFF05E001212C
:1003B00031704FF40051FFF7CAFFC6E9024570BD26
:1003C0008000002020A1070000100140C2781449DD
:1003D000D2B110B5174A0723126890F801E084786B
:1003E00090F800C023EA12220F23D340C2F1040286
:1003F00023400EFA02F21A4301EB0C03120183F8B8
:100400000023BDE8104000E080310078012300F0B7
:100410001F02C0F3421003FA02F241F82020704795
:1004200000E100E00249084302490860704700BF4C
:100430000000FA050CED00E0044A002911680CBF29
:1004400021EA000008431060704700BF1C10024002
:10045000044A002911680CBF21EA0000084310601B
:10046000704700BF1810024080B5E84800F02BF834
:10047000E9490F2248704868013048604878B0FB6D
:10048000F2F2C2EB0212801AC8700120887080BD9F
:100490000288002942F0400308BF22F04003038095
:1004A00070470089084018BF0120704709090123DF
:1004B000002A03FA01FC838843EA0C0108BF23EAFF
:1004C0000C01818070478089704781817047028864
:1004D0000B8802F441521A434B881A438B881A4303
:1004E000CB881A430B891A434B891A438B891A43C9
:1004F000CB891A430280828B22F400628283098AAC
:1005000001827047F0B587B019481A4C01AD1A4FF7
:10051000294601902046B847042029468DF8070057
:100520004020ADF804002046B84710262046294652
:100530008DF80760ADF80460B8474FF4803004F5DB
:10054000205502A9CDF80E000020ADF81600304865
:10055000CDF812004FF48270CDF80A002846FFF75C
:10056000B6FF28460121FFF793FF266107B0F0BDD3
:10057000A0000318000801409102000810B50A4CC1
:1005800004200121A04708200121A04701200121CA
:10059000A0474FF480500121A0474FF48040012133
:1005A000BDE81040FFF748BF5104000870B586B0A1
:1005B000964C16486E46314604F554450090284640
:1005C000FFF766FE182031468DF803004FF4804097
:1005D000ADF800002846FFF75BFE4FF480300C4971
:1005E000CDF80A000020ADF81200CDF80E10CDF8BD
:1005F000060001A92046FFF76AFF00F00BF820462D
:100600000121FFF745FF06B070BD00BF00A0030445
:1006100000023000E0B54FF4C060FFF703FF03486D
:10062000019001A8FFF7D2FE8CBD00BF240001019C
:1006300080B5FFF7A3FFFFF765FFBDE88040FFF738
:10064000B5BF00000648016811B1016801390160B9
:100650008168C2680131816042F10001C160704768
:10066000700000201048016801F00C020F49082AB0
:100670000FD10268C2F383420368023213F4803F51
:1006800001D10B4904E0036813F4003F18BF084987
:100690005143084A084B11600068C0F30310185C0E
:1006A00021FA00F0106070470410024000127A0036
:1006B00000093D00080000201C08000882B03748EF
:1006C000374A016841F00101016041681140354A33
:1006D0004160016811400160016821F480210160DE
:1006E000416821F4FE0141604FF41F018160002147
:1006F00001910091016841F480310160016801F4C9
:1007000000310091019901310191009919B90199C4
:10071000B1F5A06FF2D1016811F4003F0CBF0021C8
:10072000012100910099012932D14FF480514258A2
:1007300042F010024250425822F003024250425806
:1007400042F00202425041684160416841604168A4
:1007500041F480614160416821F47C11416041684D
:1007600041F4E8114160016841F080710160016865
:1007700011F0007FFBD0416821F003014160416826
:1007800041F002014160416801F00C010829FAD1F1
:1007900005484FF00061016002B070470010024050
:1007A0000000FFF8FFFFF6FE08ED00E02DE9F04144
:1007B000FFF7D4FDFFF746FDFFF73AFF134860212E
:1007C0000122FFF773FE124D124C134E10274FF00B
:1007D0000008B078012815D16F6086F80280F078A3
:1007E0000730F07020460221FFF75BFE0028F9D0A9
:1007F000F07830702046F178FFF767FE1420FFF79D
:1008000041FD2F60FFF7B8FDE3E700BF003800406F
:1008100010080140003001400000002000000000EE
:100820000000000001020304060708095008000840
:1008300000000020100000002801000860080008E7
:1008400010000020800600004401000800000000A5
:10085000000001070000000000A24A0400000000A0
:04000005080000ED02
:00000001FF
