:020000040800F2
:10000000701A0020650700086D0700086F070008D8
:10001000710700087307000875070008000000005A
:10002000000000000000000000000000D1060008F1
:1000300079070008000000003D0700084D07000890
:100040007F0700087F0700087F0700087F07000878
:100050007F0700087F0700087F0700087F07000868
:100060007F0700087F0700087F0700087F07000858
:100070007F0700087F0700087F0700087F07000848
:100080007F0700087F0700087F0700087F07000838
:100090007F0700087F0700087F0700087F07000828
:1000A0007F0700087F0700087F0700087F07000818
:1000B0007F0700087F0700087F0700087F07000808
:1000C0007F0700087F0700087F0700087F070008F8
:1000D0007F0700087F0700087F0700087F070008E8
:1000E0007F0700087F0700087F07000800F002F87C
:1000F00000F04AF80AA090E8000C82448344AAF178
:100100000107DA4501D100F03FF8AFF2090EBAE875
:100110000F0013F0010F18BFFB1A43F0010318473B
:10012000882E0000A82E00000A4410F8014B14F09D
:100130000F0508BF10F8015B240908BF10F8014B38
:100140006D1E05D010F8013B6D1E01F8013BF9D181
:10015000641E03D0641E01F8015BFBD19142E4D31D
:10016000704700000023002400250026103A28BF15
:1001700078C1FBD8520728BF30C148BF0B60704719
:100180001FB51FBD10B510BD00F0CFFB114603B465
:1001900000F04BFF03BCFFF7F3FF01F025F800F080
:1001A000E9FB03B4FFF7EEFF03BC00F0F1FB000036
:1001B0000246D2E84F0FC2E8431F03B1F9E7704788
:1001C000024652E8000F40EA010042E8000303B192
:1001D000F7E7704710B5024652E8000F20EA010425
:1001E00042E8004303B1F7E710BD10B5024652E8FC
:1001F000000F00EA01048C4203D0BFF32F8F0020D0
:1002000010BD20EA010442E8004303B1EFE710BD4E
:1002100010B5024652E8000F084203D1BFF32F8FFA
:10022000002010BD20EA010442E8004303B1F1E7D9
:1002300010BD024652E8000F411C42E8001303B112
:10024000F8E7704710B50246D2E85F0F814202D846
:10025000BFF32F8F10BD441CC2E8534F03B1F3E727
:1002600010BD10B50246D2E85F0F441CA14200D871
:100270000024C2E8534F03B1F5E710BD024652E82F
:10028000000F411E42E8001303B1F8E77047024631
:1002900052E8000F10B9BFF32F8F7047411E42E89C
:1002A000001303B1F4E770470246D2E85F0F10B9BC
:1002B000BFF32F8F7047411EC2E8531F03B1F4E70D
:1002C0007047024652E8000F10B9BFF32F8F7047F6
:1002D000016842E8001303B1F4E7704702680A605E
:1002E000BFF35F8F50E8002F0B689342F6D140E8D0
:1002F000001303B1F2E770470246D2E84F0FC2E89D
:10030000431F03B1F9E77047024652E8000F40EA85
:10031000010042E8000303B1F7E7704710B5024659
:1003200052E8000F20EA010442E8004303B1F7E776
:1003300010BD10B5024652E8000F00EA01048C42DD
:1003400003D0BFF32F8F002010BD20EA010442E844
:10035000004303B1EFE710BD10B5024652E8000FAD
:10036000084203D1BFF32F8F002010BD20EA010403
:1003700042E8004303B1F1E710BD024652E8000F26
:10038000411C42E8001303B1F8E7704710B502467C
:10039000D2E85F0F814202D8BFF32F8F10BD441CFB
:1003A000C2E8534F03B1F3E710BD10B50246D2E8DF
:1003B0005F0F441CA14200D80024C2E8534F03B190
:1003C000F5E710BD024652E8000F411E42E8001357
:1003D00003B1F8E77047024652E8000F10B9BFF3C7
:1003E0002F8F7047411E42E8001303B1F4E77047B6
:1003F0000246D2E85F0F10B9BFF32F8F7047411E3E
:10040000C2E8531F03B1F4E77047024652E8000FF9
:1004100010B9BFF32F8F7047016842E8001303B192
:10042000F4E7704702680A60BFF35F8F50E8002F5F
:100430000B689342F6D140E8001303B1F2E770472E
:100440000246D2E84F0FC2E8431F03B1F9E77047F5
:10045000024652E8000F40EA010042E8000303B1FF
:10046000F7E7704710B5024652E8000F20EA010492
:1004700042E8004303B1F7E710BD10B5024652E869
:10048000000F00EA01048C4203D0BFF32F8F00203D
:1004900010BD20EA010442E8004303B1EFE710BDBC
:1004A00010B5024652E8000F084203D1BFF32F8F68
:1004B000002010BD20EA010442E8004303B1F1E747
:1004C00010BD024652E8000F411C42E8001303B180
:1004D000F8E7704710B50246D2E85F0F814202D8B4
:1004E000BFF32F8F10BD441CC2E8534F03B1F3E795
:1004F00010BD10B50246D2E85F0F441CA14200D8DF
:100500000024C2E8534F03B1F5E710BD024652E89C
:10051000000F411E42E8001303B1F8E7704702469E
:1005200052E8000F10B9BFF32F8F7047411E42E809
:10053000001303B1F4E770470246D2E85F0F10B929
:10054000BFF32F8F7047411EC2E8531F03B1F4E77A
:100550007047024652E8000F10B9BFF32F8F704763
:10056000016842E8001303B1F4E7704702680A60CB
:10057000BFF35F8F50E8002F0B689342F6D140E83D
:10058000001303B1F2E770470246D2E84F0FC2E80A
:10059000431F03B1F9E77047024652E8000F40EAF3
:1005A000010042E8000303B1F7E7704710B50246C7
:1005B00052E8000F20EA010442E8004303B1F7E7E4
:1005C00010BD10B5024652E8000F00EA01048C424B
:1005D00003D0BFF32F8F002010BD20EA010442E8B2
:1005E000004303B1EFE710BD10B5024652E8000F1B
:1005F000084203D1BFF32F8F002010BD20EA010471
:1006000042E8004303B1F1E710BD024652E8000F93
:10061000411C42E8001303B1F8E7704710B50246E9
:10062000D2E85F0F814202D8BFF32F8F10BD441C68
:10063000C2E8534F03B1F3E710BD10B50246D2E84C
:100640005F0F441CA14200D80024C2E8534F03B1FD
:10065000F5E710BD024652E8000F411E42E80013C4
:1006600003B1F8E77047024652E8000F10B9BFF334
:100670002F8F7047411E42E8001303B1F4E7704723
:100680000246D2E85F0F10B9BFF32F8F7047411EAB
:10069000C2E8531F03B1F4E77047024652E8000F67
:1006A00010B9BFF32F8F7047016842E8001303B100
:1006B000F4E7704702680A60BFF35F8F50E8002FCD
:1006C0000B689342F6D140E8001303B1F2E770479C
:1006D0001EF0040F0CBFEFF30880EFF3098081696F
:1006E00011F8021CD9B901B590E80F10E047BDE838
:1006F00000508CE80300194B93E80600914208BFB4
:10070000704719B12CE9F00FC1F838C01A60906B2E
:10071000B0E8F00F80F309886FF0020E7047104ABE
:1007200013689942FAD801B552F821C00FC8E047C2
:10073000BDE80050CCF800007047000001B501F0A2
:10074000DBF8BDE80140EFF3098CD4E701B501F017
:10075000BFFBBDE80140EFF3098CCCE7801300201C
:10076000302F00080948804709480047FEE7FEE7A8
:10077000FEE7FEE7FEE7FEE7FEE7FEE7FEE7FEE751
:1007800004480549054A064B70470000C50E00089D
:10079000ED00000870140020701A00207016002070
:1007A00070160020032A40F2308010F0030C00F095
:1007B000158011F8013BBCF1020F624498BF11F89B
:1007C00001CB00F8013B38BF11F8013BA2F1040254
:1007D00098BF00F801CB38BF00F8013B11F00303CC
:1007E00000F07180083AC0F0088051F8043B083AE4
:1007F00051F804CBA0E80810F5E7121D5CBF51F8D2
:10080000043B40F8043BAFF30080D20724BF11F84B
:10081000013B11F801CB48BF11F8012B24BF00F8B0
:10082000013B00F801CB48BF00F8012B70474FF0A7
:1008300000020429C0F0128010F0030C00F01B80AD
:10084000CCF1040CBCF1020F18BF00F8012BA8BFBB
:1008500020F8022BA1EB0C0100F00DB85FEAC17C7F
:1008600024BF00F8012B00F8012B48BF00F8012B32
:1008700070474FF0000200B5134694469646203963
:1008800022BFA0E80C50A0E80C50B1F12001BFF449
:10089000F7AF090728BFA0E80C5048BF0CC05DF8AF
:1008A00004EB890028BF40F8042B08BF704748BFFD
:1008B00020F8022B11F0804F18BF00F8012B704771
:1008C00070477047704710B5203AC0F00B80B1E810
:1008D0001850203AA0E81850B1E81850A0E8185075
:1008E000BFF4F5AF5FEA027C24BFB1E81850A0E87E
:1008F000185044BF18C918C0BDE810405FEA827C98
:1009000024BF51F8043B40F8043B08BF7047D207AE
:1009100028BF31F8023B48BF11F8012B28BF20F84F
:10092000023B48BF00F8012B7047754600F02CF8D9
:10093000AE4605006946534620F00700854618B0CC
:1009400020B5FFF71DFFBDE820404FF000064FF037
:1009500000074FF000084FF0000B21F00701AC46F4
:10096000ACE8C009ACE8C009ACE8C009ACE8C00913
:100970008D46704710B50446AFF300802046BDE8B1
:100980001040FFF70EBC0000004870471014002014
:1009900001491820ABBEFEE72600020070477047F1
:1009A000704770477047704770477047704770478F
:1009B000704770477047704770477047704770477F
:1009C000704770477047704770477047704770476F
:1009D000704770477047704770477047704770475F
:1009E000704770477047704770477047704770474F
:1009F000704770477047704770477047704770473F
:100A00007047704770477047704770472DE9F04155
:100A1000024600250026002000230024002791F82C
:100A200003C00CF00F0591F803C00CF0100CBCF1E2
:100A3000000F03D091F802C04CEA050591F800C000
:100A4000BCF1000F31D0146800202BE04FF0010CF6
:100A50000CFA00F3B1F800C00CEA03069E4220D164
:100A600083004FF00F0C0CFA03F7BC4305FA03FCAC
:100A70004CEA040491F803C0BCF1280F06D14FF0F2
:100A8000010C0CFA00FCC2F814C00AE091F803C093
:100A9000BCF1480F05D14FF0010C0CFA00FCC2F874
:100AA00010C0401C0828D1D31460B1F800C0BCF1BC
:100AB000FF0F34DD546800202EE000F1080C4FF0E9
:100AC000010808FA0CF3B1F800C00CEA03069E42D4
:100AD00021D183004FF00F0C0CFA03F7BC4305FA49
:100AE00003FC4CEA040491F803C0BCF1280F05D1C3
:100AF00000F1080C08FA0CF8C2F8148091F803C051
:100B0000BCF1480F07D100F1080C4FF0010808FABA
:100B10000CF8C2F81080401C0828CED35460BDE801
:100B2000F081416170470161704700BFEFF31080B1
:100B300018B900BFEFF3118008B101207047002001
:100B4000FCE700BFEFF3108018B900BFEFF311808E
:100B500008B1012070470020FCE700BFEFF31080D0
:100B600018B900BFEFF3118008B1012070470020D1
:100B7000FCE700BFEFF3108018B900BFEFF311805E
:100B800008B1012070470020FCE700BFEFF30580AB
:100B900008B1012070470020FCE700BFEFF305809B
:100BA00008B1012070470020FCE700BFEFF305808B
:100BB00008B1012070470020FCE700BFEFF305807B
:100BC00008B1012070470020FCE700BFEFF314805C
:100BD00000F0010080F00100704710B50246531884
:100BE000184610BD2DE9F041054605F12800FFF734
:100BF000F2FB074667B1EC6A07E00121A01CFFF792
:100C00007BFB064606B902E0A468002CF5D100E0A3
:100C100000242046BDE8F0812DE9F04105460C4650
:100C2000286BA0B12E6B002701E0374676681EB115
:100C3000F078E1788842F8DB6660A7600EB1B460B6
:100C400000E0EC620FB17C6006E02C6304E0002061
:100C50006060A060EC622C6305F12800FFF78DFB5B
:100C6000BDE8F0814A681AB1D1E901329A6001E029
:100C70008A68C2628A681AB1D1E901235A6001E028
:100C80004A68026370474FF0E02000697047000037
:100C90000948007830B10020074908704FF08060A3
:100CA000064908604FF0E020006940F001004FF075
:100CB000E0210861704700005513002004ED00E0BA
:100CC0004FF0FF307047000010B502460B4612B9D6
:100CD0004FF0FF3010BD0D480068B0FBF2F0411E30
:100CE000B1F1807F02D34FF0FF30F3E7FF240848D3
:100CF000C47206204FF0E0242061204641610020AC
:100D0000A061044C207000BFE4E7000058130020ED
:100D100018ED00E05513002029B1064A92690243FC
:100D2000044B9A6104E0034A92698243014B9A6141
:100D3000704700000010024010B500F001F810BD2F
:100D40000CB50020019000903348006840F48030DA
:100D50003149086000BF3048006800F4003000905E
:100D60000198401C0190009818B90198B0F5A06F47
:100D7000F1D12948006800F4003010B10120009042
:100D800001E0002000900098012843D1234800682A
:100D900040F01000214908600846006820F0030078
:100DA00008600846006840F0020008601A48406881
:100DB000194948600846406848600846406840F461
:100DC000806048600846406820F47C10486008460F
:100DD000406840F4E81048600846006840F08070C1
:100DE000086000BF0C48006800F000700028F9D0CF
:100DF0000948406820F003000749486008464068F9
:100E000040F00200486000BF0348406800F00C005A
:100E10000828F9D10CBD000000100240002002405B
:100E200010B5002100200022214B5B6803F00C016B
:100E300021B1042906D0082928D107E01D4B1E4CFA
:100E4000236027E01B4B1C4C236023E0184B5B689E
:100E500003F47010164B5B6803F48032022303EB3B
:100E6000904022B9154B4343134C23600DE0104BC7
:100E70005B6803F4003323B1104B43430E4C2360F3
:100E800003E00C4B43430C4C236003E0094B0A4C3A
:100E9000236000BF00BF064B5B68C3F30313084C1D
:100EA000E15C054B1B68CB40034C236010BD000088
:100EB0000010024000127A005813002000093D0083
:100EC0005C13002010B51348006840F00100114980
:100ED000086008464068104908400E4948600846C6
:100EE00000680E4908400B4908600846006820F475
:100EF000802008600846406820F4FE0048604FF4F7
:100F00001F008860FFF718FF4FF000600449086079
:100F100010BD0000001002400000FFF8FFFFF6FEC9
:100F200008ED00E02DE9F04107460E46154605F0B4
:100F3000020080B905F0010030B1314607F1280008
:100F4000FFF73FFB044615E0314607F12800FFF7A5
:100F50004BFB04460EE0BC6A05F0010018B104EA40
:100F60000600B04205D105F0010018B904EA0600F8
:100F700000B900242046BDE8F081000030B50246EB
:100F800000230D4C606C03E00469091B0346C06834
:100F900010B104698C42F7D911619360D06020B11F
:100FA00004691569641B046182600BB1DA6001E0B9
:100FB000014C626430BD00006C130020C16811B1A7
:100FC000D0E902129160024AC16851647047000082
:100FD0006C13002010B5044601F05AF820B14FF010
:100FE000FF31206800F0ECF910BD10B50446206810
:100FF00000F008FA10BD70B50446002000F020FA99
:101000002060206808B1012504E000252146052064
:1010100000F052FA284670BD10B5044601F038F8C9
:1010200010B1206800F02AFA10BD10B500F018F9D0
:1010300010BD000000BF4FF400510748FFF771FDDD
:10104000064800F00DF84FF400510348FFF76BFD20
:10105000024800F005F8EEE70010014080EE36008F
:1010600000E000BF011EA0F10100FAD170472DE998
:10107000F05F05460F4690469A4600BF00BF2E46D9
:1010800036B13078082803D117B1BAF1000F08D073
:101090006FF003013046FFF791FC6FF00300BDE8ED
:1010A000F09F3046FFF79EFD0446CCB104F10C01E1
:1010B0003846726AFFF776FBB8F1000F02D0E0788D
:1010C00088F80000E66000BF00BFA346584600F065
:1010D00055FC39463046FFF77DFC4FF0000905E02E
:1010E00039463046FFF772FC6FF002094846D6E7F2
:1010F0002DE9F05F06460F4691469A4600BF00BFB5
:10110000354635B12878082803D117B1BAF1000F58
:1011100008D06FF003012846FFF750FC6FF0030082
:10112000BDE8F09F05F10C0000F0C9FA0446D4B107
:10113000394604F10C006A6AFFF734FB072020707F
:101140000020A07084F803906760A56000BF00BF16
:10115000A346584600F012FC39462846FFF732FCF9
:101160004FF0000805E039462846FFF72EFC6FF0E7
:1011700002084046D4E7000070B50B48B0F8546050
:101180005630FFF7D9F958B1314607485A30FFF7C2
:10119000B0F905460448C06D50F8254000BF00E096
:1011A0000024204670BD00006C1300202DE9F041A2
:1011B00006460C48B0F8547039465630FFF78AF9A5
:1011C000B8420BDA394607485830FFF792F904461F
:1011D0000448C06D40F82460012500E00025284641
:1011E000BDE8F0816C13002008B5FFF719FE01215E
:1011F0001020FFF791FD01210846FFF78DFD0948FA
:101200000068009069460848FFF700FC00F028F8E5
:1012100000221146054800F015FF00F03DF800BF20
:10122000FEE70000C82E000800100140351000083D
:1012300010B5FFF7AAFC28B9FFF777FC10B9FFF744
:10124000C4FC18B100F034FF044605E000BFDFF82D
:101250000CC000DF044600BF204610BDB1200008CE
:1012600010B500F041F9FFF79DFBFFF78EFC10B9B8
:10127000FFF75BFC30B16FF00500FFF791FB6FF0FB
:10128000050405E000BFDFF80CC000DF044600BF26
:10129000204610BDC920000810B5FFF785FBFFF7F9
:1012A00074FC10B9FFF741FC30B16FF00500FFF797
:1012B00077FB6FF0050405E000BFDFF80CC000DF2E
:1012C000044600BF204610BD2D2300082DE9F04143
:1012D00080460D4616461F463B4632462946404646
:1012E000FFF76DFBFFF759FC10B9FFF72AFC38B187
:1012F0003B46324629464046FFF7B9FE044609E020
:1013000000BF3B46324629464046DFF810C000DFAA
:10131000044600BF2046BDE8F08100001524000807
:101320002DE9F04107460D46164632462946384615
:10133000FFF74AFBFFF731FC10B9FFF702FC30B1B1
:101340006FF005010020FFF739FB002408E000BF23
:10135000324629463846DFF810C000DF044600BF99
:101360002046BDE8F0810000552500082DE9F04138
:1013700080460D4616461F463B46324629464046A5
:10138000FFF725FBFFF709FC10B9FFF7DAFB38B1CF
:101390003B46324629464046FFF7AAFE044609E08E
:1013A00000BF3B46324629464046DFF810C000DF0A
:1013B000044600BF2046BDE8F0810000E926000891
:1013C00070B506460D4629463046FFF704FBFFF789
:1013D000ECFB10B9FFF7C1FB38B16FF005013046E7
:1013E000FFF700FB6FF0050407E000BF2946304619
:1013F000DFF80CC000DF044600BF204670BD0000CF
:101400001128000870B505462846FFF7E9FAFFF7EE
:10141000CCFB10B9FFF7A1FB38B16FF005012846EE
:10142000FFF7E0FA6FF0050406E000BF2846DFF89A
:101430000CC000DF044600BF204670BD1D29000817
:1014400070B505462846FFF7CEFAFFF7AEFB10B998
:10145000FFF783FB30B16FF005010020FFF7C2FA00
:10146000002406E000BF2846DFF80CC000DF044679
:1014700000BF204670BD0000092A000870B505466F
:101480002846FFF7B2FAFFF790FB10B9FFF765FBAC
:1014900038B16FF005012846FFF7A4FA6FF0050494
:1014A00006E000BF2846DFF80CC000DF044600BF9E
:1014B000204670BDB52A0008062809D2DFE800F0F2
:1014C00008030405060704E003E002E001E000E091
:1014D00000BF00BF00BFFEE700BFFEE70148007A83
:1014E000704700006C13002070472DE9F84F044648
:1014F000894690462CB1B9F1000F02D028F00300C4
:1015000040B10023424649462046FFF74FFA0020EB
:10151000BDE8F88F09F10807F81D20F0070708213A
:101520002046FFF75AFB054600BF2868A0EB050AD6
:10153000686820F00300AAEB000ABA4500D30BE06C
:101540002D6828680028F0D10023424649462046ED
:10155000FFF72CFA0020DBE700BF00BF00BF201D13
:1015600061683944616000BF00BF2068A0F1080BCA
:1015700059462046FFF731FB064600BF00BF6168B1
:101580007068814203D900BF00BF606870606868FE
:1015900040B947EA0800686008212846FFF71DFBAC
:1015A000009011E0686820F003012846FFF715FB62
:1015B00006462868306047EA080070602E600821FF
:1015C0003046FFF70AFB0090424649462046009B02
:1015D000FFF7ECF900989BE72DE9F04105460F462F
:1015E00005B13FB9002239462846FFF7E3F900204C
:1015F000BDE8F08100213846FFF7EFFA8046A8F1F8
:101600000808002608212846FFF7E7FA044609E003
:101610002646246834B9002239462846FFF7CAF91D
:101620000020E5E74445F3D100BF00BF281D6968ED
:10163000626822F00302891A696016B900206060AE
:1016400001E020683060012239462846FFF7B2F9F0
:101650000120CDE72DE9F04104460D463CB104F0F0
:10166000070020B905F0070008B9182D07D200229D
:1016700029462046FFF79FF90020BDE8F08100BF12
:1016800000BF27463D601020786008212046FFF704
:10169000A4FA0646A5F108012046FFF79EFA30603D
:1016A00000203168086010203168486000207060B8
:1016B000012229462046FFF77EF90120DDE770B5BB
:1016C00004462CB900210846FFF771F9002070BDCF
:1016D00004F11400FEF7F5FD054615B1201DFEF7D7
:1016E000A8FD29462046FFF762F92846EFE770B5C6
:1016F00004460D462CB1E068A84202D82069A842F1
:1017000008D86FF0030229462046FFF751F96FF021
:10171000030070BD294604F11400FEF7DFFD201D13
:10172000FEF7ACFD002229462046FFF741F90020D4
:10173000EFE72DE9F04704460F4690461E4624B1D8
:101740001FB1B8F1000F00D016B90020BDE8F08736
:10175000276000206060C4F80880E660666107FBCF
:10176000086020613346424639462046FFF721F99A
:10177000354604E005EB0809C5F800904D46781E93
:10178000071EF7D128600120E0E72DE9F05F05464C
:10179000A878002840D0EC6829462046FFF762FA76
:1017A00000202870294604F10C00FFF7A0FFA06874
:1017B000002870D0A068407893286CD104F10C0008
:1017C000FFF77DFF0646002E65D000BF00BFA34691
:1017D000584600F05DFA804600221146404600F06F
:1017E0005BFB404600F0CCFA0746D7F80890494624
:1017F00006F10C00626AFEF7D5FF0720307000206A
:10180000B070387BF07031462046FFF705FA494644
:101810002046FFF7D8F83EE0AC68D5F80490A06801
:1018200080B3A068407883282DD149462046FFF731
:10183000CAF800BF00BFA346584600F029FA804608
:1018400000221146404600F027FB404600F098FA7F
:101850000746D7F808A005F10C015046626AFEF76A
:10186000A1FFF86810B1E878F96808705146204681
:10187000FFF7B0F800202870294604F10C00FFF7AC
:1018800036FF08E0FFE749462046FFF79CF8294667
:101890002046FFF7C1F9BDE8F09F2DE9F04106466B
:1018A000344625E06769E07800F00800F8B10020D0
:1018B000207600212046FFF799F8A068B8B100BF54
:1018C00000BFA046404600F0E3F90546002211465D
:1018D000284600F0E1FAE560E86A606100202061D6
:1018E000EC620120207601212046FFF777F83C4684
:1018F000002CD7D1BDE8F08170B500BFFFF73CFCEC
:10190000044604B932E0207808282DD2DFE800F040
:101910002C042C0C2C141C2400BF00BF2546164898
:10192000016E2846884720E000BF00BF25461248C8
:10193000416E2846884718E000BF00BF25460E4884
:10194000816E2846884710E000BF00BF25460A4840
:10195000C16E2846884708E000BF00BF25460648FC
:10196000016F2846884700E000BFC7E700BF00209E
:1019700000F01EF970BD00006C13002010B5044685
:101980002046FFF713FC68B10948407A30B900BF20
:101990004FF080500749086000BF07E0012104486C
:1019A000817203E021460220FFF786FD10BD000092
:1019B0006C13002004ED00E02DE9F0410446012005
:1019C000607094F920700B4800BF0646B56801E0CE
:1019D0002E46AD681DB195F92000B842F8DCE660EE
:1019E000A560B46005B1EC602046FFF70BF8BDE8D8
:1019F000F08100008813002010B502460B465C1CE5
:101A00008CB90021154C206B01E0014600690028CB
:101A1000FBD1D36151610024146109B10A611BE05B
:101A20000E4C226318E000210C4CE06A03E0C4690C
:101A30001B1B0146006910B1C4699C42F7D9D361F0
:101A40005161106109B10A6101E0044CE26218B110
:101A5000C469E41AC461426110BD00006C13002027
:101A6000C169491CB1B9416919B91949096B814268
:101A70002CD1016911B1D0E904215161416929B129
:101A8000D0E904121161002141611FE0104902698F
:101A90000A631BE0416919B90D49C96A814215D130
:101AA000016941B10169C969C26911440269D16121
:101AB000D0E904215161416929B1D0E904121161D1
:101AC0000021416102E002490269CA6270470000D8
:101AD0006C13002070B53548C46A04B970BDE06964
:101AE000401EE061E06900285ED100BF6078632895
:101AF00024D008DC13280DD033280ED043280FD073
:101B0000532837D113E073281FD0832824D093287B
:101B100030D128E0FEF76EFF2DE0FEF770FF2AE0DF
:101B2000204600F0E9F80546FEF739FF23E020469D
:101B300000F0E2F80546FEF750FF1CE0204600F0FA
:101B4000DBF80546FEF753FF15E0204600F0D4F819
:101B50000546FEF731FF0EE0204600F0CDF80546C1
:101B6000FEF72FFF07E0204600F0C6F80546FEF717
:101B700030FF00E000BF00BF204600F001F905681B
:101B800029462046FEF740FF204600F0A8F82046F0
:101B900000F0EAF8246914B1E0690028A6D00CB17D
:101BA000002060610148C46200BF97E76C13002009
:101BB0002DE9F0410646FFF791FC074600F062F878
:101BC0000446AEB91548456A022F24D1FCB1F5B1DF
:101BD00095F9200094F9201088421CDD284600F079
:101BE0007EF82046FFF7E8FE284600F01DF912E0D7
:101BF000022F0DD164B196F9200094F9201088428B
:101C000006DD2046FFF7D8FE304600F00DF902E071
:101C1000304600F0A9F8BDE8F08100006C13002008
:101C200010B50446002060702070A07800F002001B
:101C300078B1A07800F0100030B1114A216BD2F8D1
:101C40008400FFF754FD04E00D4A216B506FFFF74D
:101C5000C3FCA07800F0010080B10948D0F88800EA
:101C600030B10749D1F888002146FFF740FD05E073
:101C70000349D1F880002146FFF7AEFC10BD0000FB
:101C80006C13002001484069704700006C1300206D
:101C90000146886848B182688A6082681AB100BFCC
:101CA00000BF8268D1600022C260704730B5034631
:101CB00001B930BD91F920401A4600BF00BF9068BD
:101CC00001E00246806818B190F92050A542F8DA88
:101CD000CA608860916000B1C16000BFE9E7C16877
:101CE00049B1D0E902129160816811B1D0E90221B5
:101CF000D1600021C16070470146084600E0C0681D
:101D000010B10278012AFAD0704770B50646344601
:101D100000E0E46814B120780128FAD000BF00BFC9
:101D2000254635B13046FFF7DAFF31462846FFF742
:101D3000BDFF70BD70B504466078332812D194F8A9
:101D400023202046616AFFF7EDF8054655B10022D1
:101D50002946204600F0A0F894F823102A46606A2D
:101D6000FEF74CFE70BD000010B504460120607007
:101D700021460248FFF79AFF10BD0000881300209B
:101D8000014691F8222020238A6B981870470000A2
:101D900001494861704700006C13002010B5FFF73F
:101DA00071FF044664B1216BA06B884204D9206B9B
:101DB00000680449884203D021460120FFF77CFBDC
:101DC00010BD0000A52E5AE270B501251248806AA8
:101DD00060B912480021826D114800F039FF0446B5
:101DE00000BF0D488462806A00B900250B48406E30
:101DF00078B10948806C60B908480021C26D094873
:101E000000F026FF044600BF03488464806C00B9DC
:101E10000025284670BD00006C130020402F0008EC
:101E2000D9140008711F000810B504460220607024
:101E300003488461FFF7B2FF2046FEF7E4FD10BDC2
:101E40006C13002070B505460E46FFF747FB0228CD
:101E500001D0002070BDFFF715FF04460CB900202B
:101E6000F8E70C48406A08B90020F3E731462046FD
:101E7000FEF7BEFD657031462046FFF7BDFD054803
:101E80001C30FFF705FF04462046FFF7CDFF012079
:101E9000E0E700006C1300202DE9F04106460C46F7
:101EA000154621463046FEF7AFFD3046FFF768FF86
:101EB00007463C603046FFF7D3FD1DB13046FFF7C3
:101EC00077FE02E03046FFF74FFFBDE8F0810000EB
:101ED00010B5FEF7D8FE2548C068401C2349C860ED
:101EE0000846006D08B1086D8047FFF7F3FD00203C
:101EF000FFF75EFE1D48006C002835D01B48816B43
:101F00008069814205D0194881698163016CC16390
:101F10002AE01648C06B18B11448C16B491EC16352
:101F20001248C06B00BB00BF1048007A02281BD1CA
:101F30000E48446AC4B194F92010806B90F92000D7
:101F4000814211D12046FFF7CAFE0849886BFFF78E
:101F50000BFF0649886BFEF755FD2046FFF764FF2F
:101F600002488463016CC16310BD00006C13002043
:101F70007CB5064611490A6E486E0821FFF7D0F974
:101F8000054600BF0E48C564C06C00B97CBD0D4954
:101F90000B48016500BF0A494FF0FF330022C86CAF
:101FA0006946FFF793F90446002CF4D1DDE90001FE
:101FB000FEF72BFDDDE900108847ECE7402F000815
:101FC0006C130020C91F000870B51548446C04B993
:101FD00070BD2069401E20611CE02046FEF7EEFF28
:101FE0000F4900231A46C86C04F11801FFF7BEF927
:101FF00005461DB121460320FFF75EFAE07801286F
:1020000004D120466169FEF7B9FF01E0012060704C
:102010000348446C14B120690028DED000BFD7E724
:102020006C130020FEF7E9FC00BFDFF814C000DFEE
:1020300000BF4FF0FF310020FEF7DEFC00BFFEE7DF
:10204000BD2B00082DE9F04107460D4616463246E5
:1020500029463846FEF7D5FCFEF7AFFD10B9FEF76E
:1020600088FD30B16FF005010020FEF7C5FC0024AB
:1020700008E000BF324629463846DFF810C000DFCE
:10208000044600BF2046BDE8F0810000512C000846
:1020900010B50648007830B9FFF7CAF8012802DD0C
:1020A0000120024908700148007810BD5413002037
:1020B00010B500BF0348007A04462046FEF771FCC5
:1020C000204610BD6C13002010B59648007A0128F8
:1020D00003D1FEF768FC002010BD9248007A30B1B1
:1020E0004FF0FF30FEF75CFC4FF0FF30F4E78E4816
:1020F000406D482806D26FF00A00FEF751FC4FF001
:10210000FF30E9E78848C06810B18748008A30B9D5
:102110004FF0FF30FEF744FC4FF0FF30DCE79C212E
:1021200080480830FEF7A5FB7F48C1687D48C1653F
:102130007D48008A7B49A1F854007B488168794832
:102140000164794A116BD06AFFF784FA20B17648AE
:10215000C16A7448C0F88010734A91695069FFF7EA
:1021600079FA20B1704840696E49486704E06D48CB
:10217000D0F880006B4948676B4A116AD069FFF755
:1021800069FA20B16848C1696648816703E065481B
:10219000D0F880108167644A916A506AFFF75AFA52
:1021A00020B16148416A5F48C16703E05D48D0F8EB
:1021B0008010C1675C48406B90B15B4C646BE36816
:1021C000594C646BA268584C646B2168564C606B28
:1021D000FFF7AFFA20B12046406B5249C1F88400A6
:1021E0005148806B90B1504CA46BE3684E4CA46B8B
:1021F000A2684D4CA46B21684B4CA06BFFF799FA79
:1022000020B12046816B4748C0F888104648C06B13
:1022100090B1454CE46BE368434CE46BA268424CDC
:10222000E46B2168404CE06BFFF783FA20B1204655
:10223000C16B3C48C0F88C103B48006C90B13A4CE4
:10224000246CE368384C246CA268374C246C2168F9
:10225000354C206CFFF76DFA20B12046016C3148F7
:10226000C0F890103048406C90B12F4C646CE3681B
:102270002D4C646CA2682C4C646C21682A4C606CF8
:10228000FFF757FA20B12046416C2648C0F8941059
:102290002548806C90B1244CA46CE368224CA46C5B
:1022A000A268214CA46C21681F4CA06CFFF741FA76
:1022B00020B12046816C1B48C0F898101A48C06CA9
:1022C00090B1194CE46CE368174CE46CA268164CAE
:1022D000E46C2168144CE06CFFF72BFA20B1204627
:1022E000C16C1048C0F89C100F48006D90B10E4CA6
:1022F000246DE3680C4C246DA2680B4C246D21689E
:10230000094C206DFFF715FA20B12046016D0548F4
:10231000C0F8A010012003490872FEF744FB00201A
:10232000DAE600006C130020402F000810B5354895
:10233000007A012806D06FF00600FEF731FB4FF05F
:10234000FF3010BDFFF740FD30B94FF0FF30FEF712
:1023500027FB4FF0FF30F4E700BFFF232A4A9372B8
:10236000927A62F0FF02D243B2FA82F2C2F1200105
:1023700000BF254A0C3A1268C2F302221046884276
:1023800000D3411CFE228A40D3B21F4A183AD377A9
:1023900000BF1E4948681E49FEF796FC30B14FF059
:1023A000FF30FEF7FDFA4FF0FF30CAE7FEF788FC7A
:1023B00014490861FEF76CFC12481C30FFF768FCFA
:1023C000044634B94FF0FF30FEF7EAFA4FF0FF3021
:1023D000B7E72046FFF728FD0C48007800F0010021
:1023E00020B1022080F3148800BF04E0032080F3B2
:1023F000148800BF00BF022002490872FEF7D5FA18
:1024000000209EE76C13002018ED00E0402F00082C
:102410004D0700082DE9FF5F0746884691469A461A
:1024200000BF00BF3C462CB12078082802D1B8F18B
:10243000000F09D16FF003012046FEF7BFFA6FF0DD
:10244000030004B0BDE8F09F2046FEF7CBFB054635
:10245000002D4FD029462046FEF704FC05F10C0163
:102460004046626AFEF79EF9B9F1000F02D0E878A3
:1024700089F8000041462046FEF7ACFA002028709B
:10248000294604F10C00FFF732F9A06878B3A06880
:10249000407893282BD104F10C00FFF710F9054682
:1024A0002DB300BF00BF20460194FFF7F1FB03905E
:1024B000012200210398FFF7EFFC0398FFF760FC6F
:1024C0000646B0680290626A05F10C000299FEF7B8
:1024D00069F9072028700020A870307BE870294631
:1024E0002046FEF799FB20460299FEF76CFA4FF062
:1024F000000B2BE0BAF1000F22D052464146204695
:10250000FEF75EFA51468320FFF79CFC90B100BFB6
:102510000F484069019000BF009420460199FFF7E1
:10252000C5FB00BFEFF309800646C6F80880C6F871
:102530000C9002E02046FEF744FA6FF0010B05E034
:1025400041462046FEF742FA6FF0020B584678E704
:102550006C1300202DE9FC5F07468946154617B12C
:10256000B9F1000F07D16FF003010020FEF726FA42
:102570000020BDE8FC9F09F1030020F0030000F1FA
:102580000C0AB7FA87F0BAFA8AF10844202806D272
:102590006FF003010020FEF711FA0020E9E707FBC6
:1025A0000AF00090A5B3D5F800B0AC682E69686950
:1025B000019064B104F0030010B9E86834280FD228
:1025C0006FF008010020FEF7F9F90020D1E7E86874
:1025D00030B16FF008010020FEF7F0F90020C8E7E5
:1025E0006EB106F0030018B9DDE90010884214D27C
:1025F0006FF009010020FEF7E1F90020B9E701982A
:1026000058B16FF009010020FEF7D8F90020B0E7BB
:10261000FFE74FF0000B00240026ACB93048D0F89B
:10262000A00030B12E49D1F8A000FFF748F80446C9
:1026300007E02B490122D1F880003421FEF755FF35
:1026400004464FF0010801E04FF0000824B31EBB20
:1026500023490022C86F0099FEF747FF0646AEB92E
:1026600008F0010080B11E48D0F8A00030B11C492C
:10267000D1F8A0002146FFF73AF805E01849D1F853
:1026800080002146FEF7A8FF002403E030460099B1
:10269000FEF7CDF848F00208DCB10820207084F87D
:1026A0000280C4F804B00020A060C4F82490A062A6
:1026B000E062206333465246394604F10C00FFF7CE
:1026C00038F808490648016720466168FEF775F941
:1026D00004E06FF004010020FEF770F9204648E79F
:1026E0006C1300208B1700082DE9FF5F07468B460F
:1026F00091469A4600BF00BF3C462CB1207808287E
:1027000002D1BBF1000F09D16FF003012046FEF7A3
:1027100055F96FF0030004B0BDE8F09FA06850B316
:10272000A0684078832826D159462046FEF74BF909
:1027300000BF00BF20460194FFF7AAFA03900122D0
:1027400000210398FFF7A8FB0398FFF719FB064643
:10275000B06802905946626A0298FEF723F8F06862
:1027600010B1F06880F8009020460299FEF732F927
:102770004FF0000848E004F10C00FEF7A0FF05460A
:10278000B5B1594605F10C00626AFEF70BF8072057
:1027900028700020A87085F8039029462046FEF78F
:1027A0003BFA59462046FEF70EF94FF000082BE0A1
:1027B000BAF1000F22D0524659462046FEF708F9DA
:1027C00051469320FFF73EFB90B100BF0F48406990
:1027D000019000BF009420460199FFF767FA00BFFF
:1027E000EFF309800646C6F808B0C6F80C9002E080
:1027F0002046FEF7EEF86FF0010805E05946204646
:10280000FEF7E3F86FF00208404684E76C130020FF
:102810002DE9F0470746884600BF00BF3C4600BF91
:102820003D484069054645B96FF007012046FEF76F
:10283000D9F84FF0FF30BDE8F08714B120780428B4
:1028400007D06FF003012046FEF7CCF86FF00300CD
:10285000F1E7207E88B9E560E86A606100202061C8
:10286000E86A08B1E86A0461EC6201202076217E02
:102870002046FEF7B3F800264CE0E07800F00100B7
:10288000B0B1E068A84213D1207EFF2807D16FF0D5
:102890000F012046FEF7A6F86FF002063AE0207E10
:1028A000401C2076217E2046FEF798F8002631E075
:1028B000B8F1000F29D0E07800F0020070B1E068B4
:1028C00090F9200095F92010884207DA95F8200049
:1028D000E16881F82000E068FFF717FA41462046DA
:1028E000FEF77AF841465320FFF7ACFA38B100BF43
:1028F00000BFA14629464846FFF7D8F902E0204626
:10290000FEF76BF86FF0010604E02046FEF76CF866
:102910006FF0020630468EE76C1300202DE9F04779
:10292000074600BF00BF3C4614B12078042808D0F9
:102930006FF003012046FEF755F86FF00300BDE885
:10294000F087207E002840D0E568606910B1D4E9A6
:1029500004010861206918B1D4E90410486101E05C
:102960006069E862E07800F00200C8B195F9218062
:10297000EE6A0AE0B06838B1B06890F920004045CE
:1029800002DDB06890F920807669002EF2D195F9C9
:102990002000404504D085F820802846FFF7B5F98F
:1029A000A06878B100BF00BF00BFA1464846FFF74E
:1029B0006FF905460022D11E2846FFF76DFAA06880
:1029C0000028F0D10020FFF7F3F800202070A07855
:1029D00000F0010080B10B48D0F8940030B10949F3
:1029E000D1F894002146FEF782FE05E00549D1F8B2
:1029F00080002146FEF7F0FD2046FDF7F2FF0020A3
:102A00009DE700006C1300202DE9F0410546DDB183
:102A1000D5F800806E68AC686CB104F0030010B9A2
:102A2000E8681C2814D26FF008010020FDF7DAFFD7
:102A30000020BDE8F081E86850B16FF00801002087
:102A4000FDF7D0FF0020F4E74FF000080026002437
:102A5000A4B91748D0F8940030B11549D1F89400C2
:102A6000FEF72DFE044607E011490122D1F880004F
:102A70001C21FEF73AFD0446012700E0002784B13F
:102A800004202070A770E670C4F804800020A060C5
:102A9000E06020616061207620466168FDF79FFF5D
:102AA00004E06FF004010020FDF79CFF2046C0E722
:102AB0006C1300202DE9F047804600BF00BF44465C
:102AC00000BF3D484069064646B96FF00701204601
:102AD000FDF788FF4FF0FF30BDE8F08714B1207894
:102AE000042807D06FF003012046FDF77BFF6FF04D
:102AF0000300F1E7207E38B96FF00E012046FDF7A4
:102B000071FF6FF00200E7E7E068B04207D06FF0B6
:102B10000D012046FDF766FF6FF00200DCE7207E26
:102B2000401E2076217E2046FDF760FF207E002893
:102B300040D1606910B1D4E904010861206918B17D
:102B4000D4E90410486101E06069F062E07800F0C7
:102B5000020090B196F92190F56A0AE0A86838B1B0
:102B6000A86890F92000484502DDA86890F92090F7
:102B70006D69002DF2D186F82090A068B8B100BF31
:102B800000BFA2465046FFF783F8074600221146D1
:102B90003846FFF781F9E760F86A6061002020613C
:102BA000FC620120207601212046FDF717FF00205E
:102BB000FEF7FEFF00208FE76C13002070B5FFF7D3
:102BC00061F8044604B970BDFEF788FC022802D102
:102BD0001E48406A00B9F6E7E06AFEF75EFEA069AB
:102BE00038B100221146A069FFF756F9A069FDF738
:102BF00007FF00BFEFF30980A06314481C30FFF704
:102C000047F80546FFF710F90020FFF7C1F8E07814
:102C100000F0010008B1A06918B12046FFF700F8E4
:102C20000EE0042060700020E0600848406BA06067
:102C30000648406B10B10548406BC46003484463CC
:102C40002046FDF7D8FE00BFBDE700006C13002052
:102C50002DE9F74F82B09046029840B96FF003011A
:102C60000020FDF7C9FE002005B0BDE8F08FB8F1E7
:102C7000000F45D0D8F800000090D8F8040001906B
:102C8000D8F80840D8F81050D8F81460D8F8189040
:102C90006CB104F0030018B9D8F80C00442810D225
:102CA0006FF008010020FDF7A7FE0020DCE7D8F850
:102CB0000C0030B16FF008010020FDF79DFE0020F0
:102CC000D2E755B105F0070000B936B96FF00A0137
:102CD0000020FDF791FE0020C6E7B9F1000F02D1F8
:102CE0004FF0180914E0B9F1010F02DBB9F1380F08
:102CF0000EDD6FF00B010020FDF77EFE0020B3E734
:102D00000020009001900024002500264FF01809B3
:102D10005EB106F0070008B9482E06D26FF00A012E
:102D20000020FDF769FE00209EE7ACB96148D0F8AD
:102D3000880030B15F49D1F88800FEF7C0FC044636
:102D400007E05C490122D1F880004421FEF7CDFB69
:102D500004464FF0010A01E04FF0000A7CB375BB56
:102D6000BEB95548466D5348D0F8840048B1514922
:102D7000D1F88400FEF7A3FC05468DB14AF0100A95
:102D80000EE04C490022486F3146FEF7AEFB054687
:102D900006E048490022486F3146FEF7A6FB05468B
:102DA000ADB90AF0010088B14248D0F8880038B1C6
:102DB0004049D1F888002146FEF799FC06E008E07A
:102DC0003C49D1F880002146FEF706FC00244AF079
:102DD000020A002C62D001202070607084F802A0EA
:102DE0000198E070009860600020A060E0602061C1
:102DF0006061A061E0614FFA89F084F820004FFA29
:102E000089F084F82100FD2084F82200002084F855
:102E100023006062A062E06225636663A8194038FF
:102E2000A0630298E0632F4624483D46386022485C
:102E3000007800F0040060B11120C0EB960B05E0B3
:102E40003F1D4FF0CC303860ABF1010BBBF1000FF0
:102E5000F6D1A76B4FF0000B04E0002047F82B00E1
:102E60000BF1010BBBF10D0FF7D1154878630298F8
:102E7000B863114A127802F00100029A02F00101CF
:102E80004FF08072FA63039838620E480949086669
:102E900020466268E16BFDF7ACFD04E06FF00401D1
:102EA0000020FDF7A9FD14B12046FEF781FE204663
:102EB000DAE600006C130020402F0008A52E5AE22D
:102EC00025200008351D0008002003100000000028
:102ED0000000000000000000C410002044000000BA
:102EE000501100200001000001000000000000005F
:102EF0000000000000000000000000000811002099
:102F000044000000501200200001000028000000D2
:102F100000000000000000000000000000000000B1
:102F20004010002034000000741000205000000009
:102F3000000000005254582056352E342E30000028
:102F400003000000E803000005000000001000205E
:102F50001000000000000000000000000000000061
:102F60000000000000000000000000000000002041
:102F70000010000000000000000000000000000041
:102F80000000000000000000000000000000000041
:102F90000000000000010000D02E0008F42E000800
:102FA000182F000804000000C82F000800000020AF
:102FB00010140000280100080C3000081014002034
:102FC000600600006401000801FF01FF01FF01FF2E
:102FD00001FF01FF01FF01FF01FF01FF01FF01FFF1
:102FE00001FF01FF01FF01FF01FF01FF01FF017769
:102FF00065CC2E000894A24A042B010203040607A4
:0C3000000809342F069D08C08CFB02005C
:04000005080000ED02
:00000001FF
