:020000040800F2
:100000007006002089010008910100089301000892
:100010009501000897010008990100080000000000
:100020000000000000000000000000009B0100082C
:100030009D010008000000009F0100081D0300084A
:10004000A3010008A3010008A3010008A301000800
:10005000A3010008A3010008A3010008A3010008F0
:10006000A3010008A3010008A3010008A3010008E0
:10007000A3010008A3010008A3010008A3010008D0
:10008000A3010008A3010008A3010008A3010008C0
:10009000A3010008A3010008A3010008A3010008B0
:1000A000A3010008A3010008A3010008A3010008A0
:1000B000A3010008A3010008A3010008A301000890
:1000C000A3010008A3010008A3010008A301000880
:1000D000A3010008A3010008A3010008A301000870
:1000E000A3010008A3010008A301000800F002F822
:1000F00000F03AF80AA090E8000C82448344AAF188
:100100000107DA4501D100F02FF8AFF2090EBAE885
:100110000F0013F0010F18BFFB1A43F0010318473B
:1001200090030000B0030000103A24BF78C878C1E3
:10013000FAD8520724BF30C830C144BF04680C60ED
:10014000704700000023002400250026103A28BF35
:1001500078C1FBD8520728BF30C148BF0B60704739
:100160001FB51FBD10B510BD00F031F81146FFF7E7
:10017000F7FF00F053F900F04FF803B4FFF7F2FF78
:1001800003BC00F057F800000948804709480047C1
:10019000FEE7FEE7FEE7FEE7FEE7FEE7FEE7FEE737
:1001A000FEE7FEE704480549054A064B7047000094
:1001B0002D030008ED0000087000002070060020EC
:1001C000700200207002002070477047704775462B
:1001D00000F02CF8AE4605006946534620F00700B3
:1001E000854618B020B5FFF7DDFFBDE820404FF091
:1001F00000064FF000074FF000084FF0000BAC4630
:10020000ACE8C009ACE8C009ACE8C009ACE8C0097A
:1002100021F007018D46704710B50446AFF300800A
:100220002046BDE81040FFF7A8BF00000048704717
:100230000800002001491820ABBEFEE7260002009E
:1002400070472DE9F04391F803E00EF00F0C1EF01B
:10025000100F1CBF8A784CEA020C098811F0FF0FBE
:1002600021D0036800224FF001094FF00F0800264B
:1002700016E009FA06F70F4210D008FA02F40CFA59
:1002800002F5BEF1480F23EA040343EA050304D054
:10029000BEF1280F08BF476100E007610432013654
:1002A000082EE6D10360B1F5807F38BFBDE8F0834A
:1002B000436800224FF480794FF00F08002618E0C1
:1002C00009FA06F707EA0105BD4210D108FA02F45F
:1002D0000CFA02F5BEF1480F23EA040343EA0503D2
:1002E00004D0BEF1280F08BF476100E00761043267
:1002F0000136082EE4D14360BDE8F08341617047C8
:1003000001617047044A002911680CBF21EA00000E
:1003100008431060704700BF18100240634801682E
:1003200011B1016801390160704700BF82B03748E0
:10033000374A016841F00101016041681140354AC6
:100340004160016811400160016821F48021016071
:10035000416821F4FE0141604FF41F0181600021DA
:1003600001910091016841F480310160016801F45C
:1003700000310091019901310191009919B9019958
:10038000B1F5A06FF2D1016811F4003F0CBF00215C
:10039000012100910099012932D14FF48051425836
:1003A00042F010024250425822F00302425042589A
:1003B00042F0020242504168416041684160416838
:1003C00041F480614160416821F47C1141604168E1
:1003D00041F4E8114160016841F0807101600168F9
:1003E00011F0007FFBD0416821F0030141604168BA
:1003F00041F002014160416801F00C010829FAD185
:1004000005484FF00061016002B0704700100240E3
:100410000000FFF8FFFFF6FE08ED00E07FB51E4884
:100420004FF47A710068B0FBF1F0411E0020B0EB90
:10043000116F07D1194AF023516019490B70906070
:100440000720106010200121FFF75CFF012001212F
:10045000FFF758FF1348144C01A901902046FFF7FD
:10046000F0FE124E41F2883520464FF40051FFF75E
:1004700047FF03950398306030680028FCD1204680
:100480004FF40051FFF73AFF029502983060306850
:100490000028FCD1E8E700BF0000002010E000E0E9
:1004A00023ED00E000200310001001406800002050
:1004B000D004000800000020080000002801000807
:1004C000D804000808000020680600004401000865
:0804D00000A24A040000000034
:04000005080000ED02
:00000001FF
