:020000040800F2
:100000007006002089010008910100089301000892
:100010009501000897010008990100080000000000
:100020000000000000000000000000009B0100082C
:100030009D010008000000009F0100083D04000829
:10004000A3010008A3010008A3010008A301000800
:10005000A3010008A3010008A3010008A3010008F0
:10006000A3010008A3010008A3010008A3010008E0
:10007000A3010008A3010008A3010008A3010008D0
:10008000A3010008A3010008A3010008A3010008C0
:10009000A3010008A3010008A3010008A3010008B0
:1000A000A3010008A3010008A3010008A3010008A0
:1000B000A3010008A3010008A3010008A301000890
:1000C000A3010008A3010008A3010008A301000880
:1000D000A3010008A3010008A3010008A301000870
:1000E000A3010008A3010008A301000800F002F822
:1000F00000F03AF80AA090E8000C82448344AAF188
:100100000107DA4501D100F02FF8AFF2090EBAE885
:100110000F0013F0010F18BFFB1A43F0010318473B
:10012000A8040000C8040000103A24BF78C878C1B1
:10013000FAD8520724BF30C830C144BF04680C60ED
:10014000704700000023002400250026103A28BF35
:1001500078C1FBD8520728BF30C148BF0B60704739
:100160001FB51FBD10B510BD00F031F81146FFF7E7
:10017000F7FF00F00DFA00F04FF803B4FFF7F2FFBD
:1001800003BC00F057F800000948804709480047C1
:10019000FEE7FEE7FEE7FEE7FEE7FEE7FEE7FEE737
:1001A000FEE7FEE704480549054A064B7047000094
:1001B000A1040008ED000008700000207006002077
:1001C000700200207002002070477047704775462B
:1001D00000F02CF8AE4605006946534620F00700B3
:1001E000854618B020B5FFF7DDFFBDE820404FF091
:1001F00000064FF000074FF000084FF0000BAC4630
:10020000ACE8C009ACE8C009ACE8C009ACE8C0097A
:1002100021F007018D46704710B50446AFF300800A
:100220002046BDE81040FFF7A8BF00000048704717
:100230000800002001491820ABBEFEE7260002009E
:100240007047000080B500F003F993480849006842
:10025000B0FBF1F0411E0020B0EB116F07D1054A51
:10026000F023516004490B7090600720106080BD3E
:1002700040420F0010E000E023ED00E07349086009
:1002800008680028FCD170472DE9F04391F80390ED
:1002900009F00F085FEAC96344BF8B7848EA030896
:1002A00009880B0621D0046800254FF0010E4FF09D
:1002B0000F0C0027082F17D00EFA07F30B4210D0AF
:1002C0000CFA05F208FA05F624EA020242EA0604EC
:1002D000B9F1480F04D0B9F1280F08BF436100E01D
:1002E000036104350137E5E70460B1F5807F23D36E
:1002F000446800254FF4807E4FF00F0C0027082F34
:1003000019D00EFA07F606EA0102B24210D10CFA31
:1003100005F308FA05F224EA030343EA0204B9F1FB
:10032000480F04D0B9F1280F08BF466100E006610C
:1003300004350137E3E74460BDE8F083044A00294F
:1003400011680CBF21EA000008431060704700BF2D
:10035000181002400288002942F0400308BF22F032
:100360004003038070470A88038803F441531A430B
:100370004B881A438B881A43CB881A430B891A433C
:100380004B891A438B891A43CB891A430280828B8B
:1003900022F400628283098A01827047B0B586B078
:1003A0004FF480500121FFF7C9FF1649164C002079
:1003B000ADF80C00CDF80E100290ADF812004FF021
:1003C000827004F52055019001A92846FFF7CBFF64
:1003D00028460121FFF7BEFF04200121FFF7AEFFF1
:1003E0000A486D46009020462946FFF74DFF084811
:1003F000294600902046FFF747FF1020206106B0F5
:10040000B0BD00BF0003280000080140E000031851
:100410001000031008490A889207FCD588800888D4
:100420008007FCD50888C007FCD008880006FCD4EB
:100430008888C0B2704700BF083001400348016897
:1004400011B1016801390160704700BF68000020E8
:100450000E48016801F00C020D49082A0BD1026810
:10046000C2F3834203680232DB0302D503689B03B5
:1004700000D508495143084A084B11600068C0F391
:100480000310185C21FA00F010607047041002405D
:1004900000127A0000093D0000000020B8050008A5
:1004A00082B03648364A016841F001010160416876
:1004B000114041600168334A11400160016821F434
:1004C00080210160416821F4FE0141604FF41F0169
:1004D0008160002101910091016841F48031016047
:1004E000016801F4003100910199013101910099F5
:1004F00019B90199B1F5A06FF2D10168890354BF10
:100500000021012100910099012930D11E490A687A
:1005100042F010020A600A6822F003020A600A68C8
:1005200042F002020A6041684160416841604168EE
:1005300041F480614160416821F47C11416041686F
:1005400041F4E8114160016841F080710160016887
:100550008901FCD5416821F003014160416841F007
:1005600002014160416801F00C010829FAD10748F5
:100570004FF00061016002B0704700BF0010024000
:100580000000FFF8FFFFF6FE0020024008ED00E04B
:10059000FFF758FEFFF702FF064D00241026013436
:1005A000E0B26E60FFF736FF02202E60FFF766FEB6
:1005B000F5E700BF10080140000000000000000047
:1005C0000102030406070809E805000800000020EE
:1005D0000800000028010008F005000808000020BD
:1005E000680600004401000800A24A040000000060
:04000005080000ED02
:00000001FF
