:020000040800F2
:100000007006002089010008910100089301000892
:100010009501000897010008990100080000000000
:100020000000000000000000000000009B0100082C
:100030009D010008000000009F010008490400081D
:10004000A3010008A3010008A3010008A301000800
:10005000A3010008A3010008A3010008A3010008F0
:10006000A3010008A3010008A3010008A3010008E0
:10007000A3010008A3010008A3010008A3010008D0
:10008000A3010008A3010008A3010008A3010008C0
:10009000A3010008A3010008A3010008A3010008B0
:1000A000A3010008A3010008A3010008A3010008A0
:1000B000A3010008A3010008A3010008A301000890
:1000C000A3010008A3010008A3010008A301000880
:1000D000A3010008A3010008A3010008A301000870
:1000E000A3010008A3010008A301000800F002F822
:1000F00000F03AF80AA090E8000C82448344AAF188
:100100000107DA4501D100F02FF8AFF2090EBAE885
:100110000F0013F0010F18BFFB1A43F0010318473B
:10012000C0040000E0040000103A24BF78C878C181
:10013000FAD8520724BF30C830C144BF04680C60ED
:10014000704700000023002400250026103A28BF35
:1001500078C1FBD8520728BF30C148BF0B60704739
:100160001FB51FBD10B510BD00F031F81146FFF7E7
:10017000F7FF00F017FA00F04FF803B4FFF7F2FFB3
:1001800003BC00F057F800000948804709480047C1
:10019000FEE7FEE7FEE7FEE7FEE7FEE7FEE7FEE737
:1001A000FEE7FEE704480549054A064B7047000094
:1001B000B5040008ED000008700000207006002063
:1001C000700200207002002070477047704775462B
:1001D00000F02CF8AE4605006946534620F00700B3
:1001E000854618B020B5FFF7DDFFBDE820404FF091
:1001F00000064FF000074FF000084FF0000BAC4630
:10020000ACE8C009ACE8C009ACE8C009ACE8C0097A
:1002100021F007018D46704710B50446AFF300800A
:100220002046BDE81040FFF7A8BF00000048704717
:100230000800002001491820ABBEFEE7260002009E
:100240007047000080B500F009F998480949006836
:10025000B0FBF1F0411E0020B0EB116F18BF80BD64
:10026000054AF023516005490B709060072010602B
:1002700080BD00BF40420F0010E000E023ED00E031
:100280007549086008680028FCD170472DE9F043E3
:1002900091F803E00EF00F0C1EF0100F1CBF8A78CF
:1002A0004CEA020C098811F0FF0F21D003680022EC
:1002B0004FF001094FF00F08002616E009FA06F783
:1002C0000F4210D008FA02F40CFA02F5BEF1480F02
:1002D00023EA040343EA050304D0BEF1280F08BF54
:1002E000476100E0076104320136082EE6D1036061
:1002F000B1F5807F38BFBDE8F083436800224FF43A
:1003000080794FF00F08002618E009FA06F707EA8F
:100310000105BD4210D108FA02F40CFA02F5BEF153
:10032000480F23EA040343EA050304D0BEF1280F73
:1003300008BF476100E0076104320136082EE4D1AE
:100340004360BDE8F0830000044A002911680CBF37
:1003500021EA000008431060704700BF18100240F7
:100360000288002942F0400308BF22F040030380C6
:10037000704702880B8802F441521A434B881A4393
:100380008B881A43CB881A430B891A434B891A432B
:100390008B891A43CB891A430280828B22F4006234
:1003A0008283098A01827047B0B586B04FF48050CD
:1003B0000121FFF7C9FF0020144C01A90290302051
:1003C00004904FF0827004F5205501904FF040707A
:1003D00003902846FFF7CDFF28460121FFF7C0FF15
:1003E00004200121FFF7B0FF09486D46294600901F
:1003F0002046FFF74BFF0748294600902046FFF7AD
:1004000045FF1020206106B0B0BD00BF00080140CC
:10041000E0000318100003100A490A8812F0020FC6
:10042000FBD08880088810F0020FFBD0088810F0FD
:10043000010FFBD0088810F0800FFBD18888C0B274
:10044000704700BF083001400348016811B10168DE
:1004500001390160704700BF680000201048016842
:1004600001F00C020F49082A0FD10268C2F383423F
:100470000368023213F4803F01D10B4904E00368A2
:1004800013F4003F18BF08495143084A084B116054
:100490000068C0F30310185C21FA00F01060704788
:1004A0000410024000127A0000093D000000002004
:1004B000D005000882B03748374A016841F0010191
:1004C000016041681140354A416001681140016096
:1004D000016821F480210160416821F4FE0141603E
:1004E0004FF41F018160002101910091016841F4E6
:1004F00080310160016801F40031009101990131FE
:100500000191009919B90199B1F5A06FF2D1016873
:1005100011F4003F0CBF0021012100910099012935
:1005200032D14FF48051425842F0100242504258AA
:1005300022F003024250425842F002024250416807
:10054000416041684160416841F4806141604168B7
:1005500021F47C114160416841F4E8114160016877
:1005600041F080710160016811F0007FFBD04168AB
:1005700021F003014160416841F00201416041689E
:1005800001F00C010829FAD105484FF00061016023
:1005900002B07047001002400000FFF8FFFFF6FEB7
:1005A00008ED00E070B5FFF74DFEFFF7FDFE074DCB
:1005B0000024102601346E60E0B2FFF72DFF4FF4E7
:1005C0007A702E60FFF75CFEF4E700BF1008014070
:1005D00000000000000000000102030406070809F3
:1005E00000060008000000200800000028010008A4
:1005F0000806000808000020680600004401000802
:0806000000A24A040000000002
:04000005080000ED02
:00000001FF
