:020000040800F2
:10000000680800206D0100087501000877010008EC
:10001000790100087B0100087D0100080000000054
:100020000000000000000000000000007F01000848
:10003000810100080000000083010008850100081C
:100040008701000887010008870100088701000870
:100050008701000887010008870100088701000860
:100060008701000887010008870100088701000850
:100070008701000887010008870100088701000840
:100080008701000887010008870100088701000830
:100090008701000887010008870100088701000820
:1000A0008701000887010008870100088701000810
:1000B0008701000887010008870100088701000800
:1000C00087010008870100088701000887010008F0
:1000D00087010008BD0400088701000887010008A7
:1000E00087010008870100088701000800F002F876
:1000F00000F02CF80AA090E8000C82448344AAF196
:100100000107DA4501D100F021F8AFF2090EBAE893
:100110000F0013F0010F18BFFB1A43F0010318473B
:1001200030060000400600000023002400250026C1
:10013000103A28BF78C1FBD8520728BF30C148BF4A
:100140000B6070471FB51FBD10B510BD00F058F80B
:100150001146FFF7F7FF00F063FA00F076F803B4FA
:10016000FFF7F2FF03BC00F07DF80000094880476C
:1001700009480047FEE7FEE7FEE7FEE7FEE7FEE789
:10018000FEE7FEE7FEE7FEE704480549054A064BA1
:1001900070470000CD030008ED0000086802002051
:1001A0006808002068040020680400204FF0000266
:1001B00000B5134694469646203922BFA0E80C505D
:1001C000A0E80C50B1F12001BFF4F7AF090728BF38
:1001D000A0E80C5048BF0CC05DF804EB890028BFB4
:1001E00040F8042B08BF704748BF20F8022B11F0DD
:1001F000804F18BF00F8012B704770477047704759
:10020000754600F02BF8AE4605006946534620F0CF
:100210000700854618B020B5FFF7B6FFBDE82040BF
:100220004FF000064FF000074FF000084FF0000BB2
:10023000AC46ACE8C009ACE8C009ACE8C009ACE821
:10024000C00921F007018D46704710B50446AFF391
:1002500000802046BDE81040FFF781BF004870478E
:100260000000002001491820ABBEFEE72600020076
:1002700070472DE9F04391F803E00EF00F0C1EF0EB
:10028000100F1CBF8A784CEA020C098811F0FF0F8E
:1002900021D0036800224FF001094FF00F0800261B
:1002A00016E009FA06F70F4210D008FA02F40CFA29
:1002B00002F5BEF1480F23EA040343EA050304D024
:1002C000BEF1280F08BF476100E007610432013624
:1002D000082EE6D10360B1F5807F38BFBDE8F0831A
:1002E000436800224FF480794FF00F08002618E091
:1002F00009FA06F707EA0105BD4210D108FA02F42F
:100300000CFA02F5BEF1480F23EA040343EA0503A1
:1003100004D0BEF1280F08BF476100E00761043236
:100320000136082EE4D14360BDE8F083044A002979
:1003300011680CBF21EA000008431060704700BF3D
:100340001810024010B51C4C226802F00C031B4A26
:10035000082B11D12368C3F3834303F1020C2368F4
:1003600013F4803F01D1164A04E0236813F4003FE0
:1003700018BF134A0CFB02F2026012492368C3F350
:100380000313CB5CDA4042602368C3F30223CB5CE7
:1003900022FA03F383602368C3F3C223C95C0A4BC8
:1003A00022FA01F1C1602268C2F381329A5CB1FB8A
:1003B000F2F1016110BD00BF0410024000127A008A
:1003C00000093D00400700083C07000882B037489C
:1003D000374A016841F00101016041681140354A26
:1003E0004160016811400160016821F480210160D1
:1003F000416821F4FE0141604FF41F01816000213A
:1004000001910091016841F480310160016801F4BB
:1004100000310091019901310191009919B90199B7
:10042000B1F5A06FF2D1016811F4003F0CBF0021BB
:10043000012100910099012932D14FF48051425895
:1004400042F010024250425822F0030242504258F9
:1004500042F0020242504168416041684160416897
:1004600041F480614160416821F47C114160416840
:1004700041F4E8114160016841F080710160016858
:1004800011F0007FFBD0416821F003014160416819
:1004900041F002014160416801F00C010829FAD1E4
:1004A00005484FF00061016002B070470010024043
:1004B0000000FFF8FFFFF6FE08ED00E010B5874CE6
:1004C00040F22551204600F01DF858B1204600F0BA
:1004D0009FF88449984B0A88FE2A23F812009CBF93
:1004E000501C088010BD00BF8289002942F40053CF
:1004F00008BF22F40053838170470088084018BF6A
:100500000120704701F01F02012303FA02F2C1F338
:100510004213022B06D0012B14BF00F1140300F18B
:100520000C0301E000F110031B88090A1A404FF088
:10053000010318BF0122008803FA01F1084018BF27
:1005400001201040704701F01F0C012303FA0CFC3E
:10055000C1F342131421022B08BF1021012B08BF45
:100560000C21002A42580CBF22EA0C0242EA0C027B
:100570004250704770B586B00446008A0D46C9885F
:1005800001AE20F4405008434EF6F3112082A089BA
:100590000840A98808432989084369890843A0813C
:1005A000A08AA98920F440700843A0823046FFF752
:1005B000C9FE4A4906F1080002226FF063038C422B
:1005C0004FF0190108BF06F10C00042600684843EB
:1005D000A189A2EBD1312A6802FA01F1B0FBF1F056
:1005E0006421B0FBF1F202FB0300A389A6EBD33632
:1005F000B0403230B0FBF1F0072141EA133181F015
:100600000801084040EA0210208106B070BD00BF1A
:1006100080886FF35F2070476FF35F2181807047A0
:100620002DE9F041C6B044F205000121FFF77EFE3E
:100630002A4C294845AE3146A4F5405545902846F8
:10064000FFF717FE042031468DF817014FF4806044
:10065000ADF814012846FFF70CFE4FF4E13041A934
:10066000419000204290ADF810014FF4402043909B
:100670002046FFF77FFF20460121FFF735FF204688
:1006800040F225510122FFF75EFF1548DFF8548044
:10069000294F202101AE0160B8F8000007EB4000AF
:1006A00030F8020C0A28F7D130464FF48071FFF77A
:1006B0007DFD304600F018F8354609E02046FFF78A
:1006C000ABFF20468021FFF718FF0028F9D0013545
:1006D00029780029F2D1DFE7000203180038014031
:1006E00004E100E06200002010B5DFF848E0DFF828
:1006F00048C00022BEF80030BEF802109CB289B299
:10070000A1429CBF90B210BD591C93B2AEF800102C
:100710001CF81410C154BEF80030B3F5807F03D02C
:10072000BEF802108B4203D100230021CEF8003026
:100730000132E3E7600000206400002002040608A4
:100740000000000001020304010203040607080977
:100750006007000800000020680800002801000869
:04000005080000ED02
:00000001FF
