:020000040800F2
:10000000600600206D0100087501000877010008F6
:10001000790100087B0100087D0100080000000054
:100020000000000000000000000000007F01000848
:10003000810100080000000083010008850100081C
:100040008701000887010008870100088701000870
:100050008701000887010008870100088701000860
:100060008701000887010008870100088701000850
:100070008701000887010008870100088701000840
:100080008701000887010008870100088701000830
:100090008701000887010008870100088701000820
:1000A0008701000887010008870100088701000810
:1000B0008701000887010008870100088701000800
:1000C00087010008870100088701000887010008F0
:1000D00087010008870100088701000887010008E0
:1000E00087010008870100088701000800F002F876
:1000F00000F02CF80AA090E8000C82448344AAF196
:100100000107DA4501D100F021F8AFF2090EBAE893
:100110000F0013F0010F18BFFB1A43F0010318473B
:10012000E8040000F8040000002300240025002655
:10013000103A28BF78C1FBD8520728BF30C148BF4A
:100140000B6070471FB51FBD10B510BD00F031F832
:100150001146FFF7F7FF00F0EFF900F04FF803B496
:10016000FFF7F2FF03BC00F057F800000948804792
:1001700009480047FEE7FEE7FEE7FEE7FEE7FEE789
:10018000FEE7FEE7FEE7FEE704480549054A064BA1
:100190007047000081030008ED00000860000020A7
:1001A0006006002060020020600200207047704757
:1001B0007047754600F02CF8AE4605006946534678
:1001C00020F00700854618B020B5FFF7DDFFBDE839
:1001D00020404FF000064FF000074FF000084FF0AE
:1001E000000BAC46ACE8C009ACE8C009ACE8C009FB
:1001F000ACE8C00921F007018D46704710B50446F0
:10020000AFF300802046BDE81040FFF7A8BF000014
:10021000004870470000002001491820ABBEFEE7EF
:100220002600020070472DE9F04391F803E00EF03C
:100230000F0C1EF0100F1CBF8A784CEA020C0988C4
:1002400011F0FF0F21D0036800224FF001094FF099
:100250000F08002616E009FA06F70F4210D008FA38
:1002600002F40CFA02F5BEF1480F23EA040343EA54
:10027000050304D0BEF1280F08BF476100E0076105
:1002800004320136082EE6D10360B1F5807F38BF15
:10029000BDE8F083436800224FF480794FF00F08E7
:1002A000002618E009FA06F707EA0105BD4210D159
:1002B00008FA02F40CFA02F5BEF1480F23EA04032F
:1002C00043EA050304D0BEF1280F08BF476100E0F0
:1002D000076104320136082EE4D14360BDE8F083A3
:1002E000044A002911680CBF21EA0000084310608D
:1002F000704700BF1810024010B51C4C226802F075
:100300000C031B4A082B11D12368C3F3834303F169
:10031000020C236813F4803F01D1164A04E02368DD
:1003200013F4003F18BF134A0CFB02F2026012499B
:100330002368C3F30313CB5CDA4042602368C3F342
:100340000223CB5C22FA03F383602368C3F3C22346
:10035000C95C0A4B22FA01F1C1602268C2F3813202
:100360009A5CB1FBF2F1016110BD00BF04100240C4
:1003700000127A0000093D00F8050008F4050008A5
:1003800082B03748374A016841F001010160416895
:100390001140354A4160016811400160016821F453
:1003A00080210160416821F4FE0141604FF41F018A
:1003B0008160002101910091016841F48031016068
:1003C000016801F400310091019901310191009916
:1003D00019B90199B1F5A06FF2D1016811F4003F8C
:1003E0000CBF0021012100910099012932D14FF465
:1003F0008051425842F010024250425822F003020B
:100400004250425842F00202425041684160416805
:100410004160416841F480614160416821F47C1190
:100420004160416841F4E8114160016841F0807128
:100430000160016811F0007FFBD0416821F00301E9
:100440004160416841F002014160416801F00C01E6
:100450000829FAD105484FF00061016002B07047E9
:10046000001002400000FFF8FFFFF6FE08ED00E07C
:100470008289002942F4005308BF22F4005383818B
:1004800070470088084018BF0120704770B586B0DB
:100490000446008A0D46C98801AE20F44050084346
:1004A0004EF6F3112082A0890840A98808432989C3
:1004B000084369890843A081A08AA98920F4407073
:1004C0000843A0823046FFF717FF494906F10800AC
:1004D00002226FF063038C424FF0190108BF06F14E
:1004E0000C00042600684843A189A2EBD1312A6898
:1004F00002FA01F1B0FBF1F06421B0FBF1F202FB72
:100500000300A389A6EBD336B0403230B0FBF1F044
:10051000072141EA133181F00801084040EA021046
:10052000208106B070BD00BF80886FF35F207047E8
:100530006FF35F2181807047F0B5A5B044F20500EC
:100540000121FFF7CDFE2A4C284824AE3146A4F500
:10055000405524902846FFF766FE042031468DF86A
:1005600093004FF48060ADF890002846FFF75BFEE3
:100570004FF4E130002720A920904FF4402021972C
:10058000ADF88C7022902046FFF780FF20460121B5
:10059000FFF76EFF6D463E4620462021FFF771FFB4
:1005A0000028F9D02046FFF7BFFF771C0A2825F85E
:1005B000160004D1002F4FF00007ECD003E0002F0D
:1005C000E9D00D28E7D100270BE035F817102046B9
:1005D000FFF7AEFF20468021FFF753FF0028F9D038
:1005E0000137B742F1DD0027D5E700BF000203184D
:1005F0000038014002040608000000000102030464
:10060000010203040607080918060008000000207C
:0806100060060000280100084B
:04000005080000ED02
:00000001FF
