:020000040800F2
:10000000600600206D0100087501000877010008F6
:10001000790100087B0100087D0100080000000054
:100020000000000000000000000000007F01000848
:10003000810100080000000083010008850100081C
:100040008701000887010008870100088701000870
:100050008701000887010008870100088701000860
:100060008701000887010008870100088701000850
:100070008701000887010008870100088701000840
:100080008701000887010008870100088701000830
:100090008701000887010008870100088701000820
:1000A0008701000887010008870100088701000810
:1000B0008701000887010008870100088701000800
:1000C00087010008870100088701000887010008F0
:1000D00087010008870100088701000887010008E0
:1000E00087010008870100088701000800F002F876
:1000F00000F02CF80AA090E8000C82448344AAF196
:100100000107DA4501D100F021F8AFF2090EBAE893
:100110000F0013F0010F18BFFB1A43F0010318473B
:100120006003000070030000002300240025002667
:10013000103A28BF78C1FBD8520728BF30C148BF4A
:100140000B6070471FB51FBD10B510BD00F031F832
:100150001146FFF7F7FF00F04BF900F04FF803B43A
:10016000FFF7F2FF03BC00F057F800000948804792
:1001700009480047FEE7FEE7FEE7FEE7FEE7FEE789
:10018000FEE7FEE7FEE7FEE704480549054A064BA1
:100190007047000001030008ED0000086000002027
:1001A0006006002060020020600200207047704757
:1001B0007047754600F02CF8AE4605006946534678
:1001C00020F00700854618B020B5FFF7DDFFBDE839
:1001D00020404FF000064FF000074FF000084FF0AE
:1001E000000BAC46ACE8C009ACE8C009ACE8C009FB
:1001F000ACE8C00921F007018D46704710B50446F0
:10020000AFF300802046BDE81040FFF7A8BF000014
:10021000004870470000002001491820ABBEFEE7EF
:100220002600020070472DE9F04391F803E00EF03C
:100230000F0C1EF0100F1CBF8A784CEA020C0988C4
:1002400011F0FF0F21D0036800224FF001094FF099
:100250000F08002616E009FA06F70F4210D008FA38
:1002600002F40CFA02F5BEF1480F23EA040343EA54
:10027000050304D0BEF1280F08BF476100E0076105
:1002800004320136082EE6D10360B1F5807F38BF15
:10029000BDE8F083436800224FF480794FF00F08E7
:1002A000002618E009FA06F707EA0105BD4210D159
:1002B00008FA02F40CFA02F5BEF1480F23EA04032F
:1002C00043EA050304D0BEF1280F08BF476100E0F0
:1002D000076104320136082EE4D14360BDE8F083A3
:1002E0004161704701617047044A002911680CBFE1
:1002F00021EA000008431060704700BF1810024058
:1003000082B03748374A016841F001010160416815
:100310001140354A4160016811400160016821F4D3
:1003200080210160416821F4FE0141604FF41F010A
:100330008160002101910091016841F480310160E8
:10034000016801F400310091019901310191009996
:1003500019B90199B1F5A06FF2D1016811F4003F0C
:100360000CBF0021012100910099012932D14FF4E5
:100370008051425842F010024250425822F003028B
:100380004250425842F00202425041684160416886
:100390004160416841F480614160416821F47C1111
:1003A0004160416841F4E8114160016841F08071A9
:1003B0000160016811F0007FFBD0416821F003016A
:1003C0004160416841F002014160416801F00C0167
:1003D0000829FAD105484FF00061016002B070476A
:1003E000001002400000FFF8FFFFF6FE08ED00E0FD
:1003F0007CB51F4C08200121A04710200121A047F7
:1004000001200121A0471B481B4C01AE3146019041
:100410002046FFF708FF4FF4005004F58065314691
:10042000ADF804002846FFF7FEFE144E20464FF4B8
:100430008051FFF757FF28464FF40051FFF752FF56
:10044000304601E000BF01300028FBD120464FF4C8
:100450008051FFF745FF28464FF40051FFF740FF5A
:10046000304601E000BF01300028FBD1DEE700BFCD
:10047000E902000800100310000C014000AFDAFD93
:100480009004000800000020600600002801000819
:04000005080000ED02
:00000001FF
